:020000040800F2
:1000000060BD0020756A0008770F0008790F0008AE
:100010007B0F00087D0F00087F0F00080000000024
:10002000000000000000000000000000810F000838
:10003000830F000800000000850F0008870F0008EC
:100040008F6A00088F6A00088F6A00089D610008A7
:100050008F6A00088F6A00088F6A00088F6A00089C
:100060008F6A00088F6A00088F6A00088F6A00088C
:100070008F6A00088F6A00088F6A00088F6A00087C
:100080008F6A00088F6A00088F6A00088F6A00086C
:100090008F6A00088F6A00088F6A00088F6A00085C
:1000A0008F6A00088F6A00088F6A00088F6A00084C
:1000B0008F6A0008170F0008750F00088F6A000884
:1000C0008F6A00088F6A00088F6A00088F6A00082C
:1000D0008F6A0008A1090008150F00088F6A000840
:1000E0008F6A00088F6A00088F6A00088F6A00080C
:1000F0008F6A00088F6A00088F6A00088F6A0008FC
:100100008F6A00088F6A00088F6A00088F6A0008EB
:100110006D510008715C00088F6A00088F6A000842
:100120008F6A00088F6A00088F6A00088F6A0008CB
:1001300000F002F800F0B0F80AA090E8000C824449
:100140008344AAF10107DA4501D100F0A5F8AFF226
:10015000090EBAE80F0013F0010F18BFFB1A43F0A5
:1001600001031847C0A10300E0A103000A444FF0B7
:10017000000C10F8013B13F0070408BF10F8014B06
:100180001D1108BF10F8015B641E05D010F8016B4B
:10019000641E01F8016BF9D113F0080F1EBF10F8AF
:1001A000014BAD1C0C1B09D16D1E58BF01F801CBD2
:1001B000FAD505E014F8016B01F8016B6D1EF9D555
:1001C0009142D6D37047000000230024002500266A
:1001D000103A28BF78C1FBD8520728BF30C148BFAA
:1001E0000B6070476E290DF0208170290CF0898614
:1001F00066290FF0388065290FF0358067290FF0E8
:1002000032806129AFF3008003681B0A28BF41F0E8
:10021000800169290CF0FA8564290CF0F7857529AD
:100220000CF0F4856F290DF0268478290CF05586A2
:10023000E9290DF0C183E4290DF0BE83F5290DF005
:10024000BB83EF290DF02384F8290CF05486036852
:10025000DB0928BF41F0800163290DF03083732949
:100260000DF03583E3290DF0B184F3290DF0B68448
:10027000002070471FB50DF015FC04000020002180
:100280000EF07AF9401C6060002000210EF05EF94B
:10029000E0601FBD10B510BD0DF03EFD1146FFF72B
:1002A000E9FF00F092F80DF065FD03B4FFF7F2FFEF
:1002B00003BC04F04DFF00007CB5FF2000F0B4FE4D
:1002C000C0EB0020D049C860FE2000F0ADFEFF2149
:1002D00090FBF1F201FB1200CB49C9680844CA49FE
:1002E000C860FD2000F0A0FE040220460EF0E8FDEC
:1002F000C549C861FC2000F097FE06460EF0F8FDE7
:100300000546C148C16928460EF03AFC0446BF497B
:100310000EF0A4FCBC49C861FB2000F085FE04027D
:1003200020460EF0CDFDB8494862FA2000F07CFE70
:1003300006460EF0DDFD0546B348416A28460EF03C
:100340001FFC0446B1490EF089FCAF494862F92010
:1003500000F06AFE0002AC494882F82000F064FE1A
:10036000A949498A0844A8494882F72000F05CFE60
:10037000A7490870F62000F057FEA5494870F520FF
:1003800000F052FEA2498870F42000F04DFEA04912
:10039000C870F32000F048FE00029E490860F22079
:1003A00000F042FE9B49096808449A4908600846E3
:1003B00001689748C078CDE9000195488378427874
:1003C000017895A004F09CFF7CBD8CB000F0C6F9CC
:1003D0004FF4165000F064FA4FF4E13004F001FFDE
:1003E00000F0DCFD00F0F3FD04F088F904F0D4FA2D
:1003F00093A004F085FFFFF75FFF08F056FC06F0BE
:100400003CF868B193A004F07BFFC82000F0CDF960
:100410009548006808B9012000E000209249086072
:1004200008F0FCFC91490122086891A10AF0A3FDA3
:100430000AAA0BA98FA008F08EFD68B18EA004F067
:100440005FFFC82000F0B1F98748006808B90120B3
:1004500000E00020844908608BA004F051FF0A9856
:10046000820A0B98810A8CA004F04AFF05F037FE3F
:1004700048B195A004F044FF4FF4487000F095F99E
:1004800095A004F03DFF03F002FF4FF4165005F075
:100490002FFC0CE004F0BDFD5B49C8600846C16854
:1004A00091A004F02DFF4FF4967000F07EF95648AD
:1004B000C0680028EED004F021FE4FF40061062051
:1004C00005F0C0FB9EE090480068401C8E49086023
:1004D000084600684EF66021884202D900208A4909
:1004E00008604FF40051894807F0D7FF60B9884889
:1004F000008809F0BCF84FF4967000F056F9844873
:100500000088401C824908807F4800681421B0FBA5
:10051000F1F201FB120048B905F00BFD52480068EA
:10052000C0437C49C1F8A00104F0E8FD05F09CFB44
:1005300000F0A5FA744800680A21B0FBF1F201FB53
:10054000120020B905F068FCC82000F02EF905F073
:1005500045FC2D48008A2C49498A884203DD012048
:100560002949087502E000202749087503F0E2FDDB
:1005700005F0F8F9244A9169D0690EF0CDFC09D351
:10058000214A116A506A0EF0C7FD03D31E48007D50
:10059000012831D10120604908605E49C1F8A001FD
:1005A0001949486A0EF0C0FA04460D461649C86952
:1005B0000EF0BAFA06460F461349086A0EF0B4FA6E
:1005C00080468946104988690EF0AEFA82468B460D
:1005D0000D48408ACDE90467CDE9064508900A48F0
:1005E000008ACDE900890290074852465B46C168FF
:1005F0004AA004F085FE05E000204749086045490F
:10060000C1F8A0015FE70000B8020020000020410F
:10061000BD000020C40000200D0A57353530305F82
:100620005365727665725F49503A25642E25642EB3
:1006300025642E25643A25303464200D0A0000001C
:1006400073746172745F736D6F6B7920200D0A0D86
:100650000A00000053442043617264204572726FA7
:100660007221200D0A000000A08121428402002096
:10067000303A000030000000466174667320457215
:10068000726F7221200D0A004641544653204F4B91
:1006900021200D0A0000000053445F746F74616CE8
:1006A0005F53697A653A202564204D423C2D2D2DFB
:1006B0003E53445F667265655F53697A653A2025EB
:1006C00064204D42200D0A00525443204552524F9F
:1006D00052212020200D0A0052544320547279697F
:1006E0006E672E2E2E0D0A000D0A0D0A2053656E20
:1006F000736F722E4445565F4E756D203D20256404
:100700000D0A0D0A00000000140000200010014036
:1007100000000020008021428C0122425345545F9A
:10072000444154413A253034642025332E32662723
:10073000432025332E32662525202530336420259D
:10074000332E326627432025332E32662525202579
:10075000303364204F4B0D0A0000000010B56FF0DD
:10076000040006F0F6F910BD014601EBC1024FF09E
:10077000E0235A6100229A611A46126942F001028E
:100780001A6100BF4FF0E022106900F001021AB1B7
:1007900000F48032002AF5D04FF0E022126922F0F6
:1007A00001024FF0E0231A61704710B50146B1F520
:1007B000E16F22D201EBC1034FF47A7463434FF02F
:1007C000E02463610023A36123461B6943F0010316
:1007D000236100BF4FF0E023186900F001031BB153
:1007E00000F48033002BF5D04FF0E0231B6923F099
:1007F00001034FF0E02423614FE000221FE0274B6C
:100800004FF0E02463610023A36123461B6943F09A
:100810000103236100BF4FF0E023186900F00103DA
:100820001BB100F48033002BF5D04FF0E0231B699F
:1008300023F001034FF0E0242361531CDAB24FF49C
:10084000E163B1FBF3F39342D9D84FF4E163B1FB19
:10085000F3F403FB141303EBC3034FF47A74634301
:100860004FF0E02463610023A36123461B6943F03A
:100870000103236100BF4FF0E023186900F001037A
:100880001BB100F48033002BF5D04FF0E0231B693F
:1008900023F001034FF0E024236110BD4031F70045
:1008A00010B586B004464FF4A06006F003F90121AC
:1008B000880306F088FB0121042006F084FB4FF436
:1008C0000070ADF8140003208DF8160018208DF884
:1008D000170005A9FE4807F04DFD4FF48060ADF804
:1008E000140004208DF8170005A9F94807F042FD0F
:1008F00001940020ADF80800ADF80A00ADF80C0036
:10090000ADF810000C20ADF80E0001A9F14807F079
:1009100010FB2021EF4807F080FC012240F2255116
:10092000EC4807F09EFB25208DF8000001208DF893
:1009300001008DF802008DF80300684606F0BFF84C
:100940000121E44807F081FB06B010BD0FB438B5B3
:1009500005A80090E048009A04990CF0D3F9002013
:100960000090DD480CF0D2FB054600BFD948008856
:1009700000F040000028F9D000240CE0D648005DCB
:10098000D449091D088000BFD248008800F040000B
:100990000028F9D0641CAC42F0D338BC5DF814FBDD
:1009A00010B540F22551CB4807F040FC58B1C9487A
:1009B00007F0BCFBC949CA4A12688854C848006895
:1009C000401CC749086010BD70B505460E4600249E
:1009D00000BF08E0295DBF4807F0A4FB0120FFF736
:1009E000E4FE601CC4B2B442F4DB70BD2DE9F041FA
:1009F000ADF5007D04460E46FF27B8467A1CB9497E
:100A000040A80CF0E7FB7A1CB74968460CF0E2FB03
:100A100009E014F8010B80EA070540A8405D80EA70
:100A200008071DF80580301EA6F10101CEB2F0D1F5
:100A300048EA07200DF5007DBDE8F08170B5054658
:100A4000A6480078012811D1002405E0A348005DE4
:100A500028706D1C601CC4B2A14800688442F5D3A4
:100A60004FF480719D480CF009FC07E000209C4980
:100A700008604FF4807199480CF000FC70BD2DE9BE
:100A8000F05F0024DFF864A2DFF864B240F285264C
:100A90009848FFF7D3FF9848D0F818A0D0F820B0B6
:100AA000068A94480078012870D18D4800789349CF
:100AB000087008460078801EC1B28E48FFF796FF86
:100AC0000746C7F3072807F0FF098C480078801E07
:100AD0008849085C404579D188480078401E085C08
:100AE0004845F8D1864950460EF04AFA8246844974
:100AF00058460EF045FA83467E484078032802D0D7
:100B000006287DD1AFE17B488078002879D17948EB
:100B1000C078052875DC7748C078042872DC7548F1
:100B2000C47845796806000E7249887003207349BD
:100B30000870012C03D0022C01D0032C64D1012DAC
:100B400062D1012C1FD118E050460EF07DF9C0F3A0
:100B500007216A4802780078401C684B1870654885
:100B6000815450460EF070F9C1B2644802780078A2
:100B7000401C624B18705F488154281EA5F101018A
:100B8000CDB2E1D140E0022C21D119E0B8E15846C4
:100B90000EF05AF9C0F30721584802780078401C3B
:100BA000564B18705348815458460EF04DF9C2B256
:100BB000524801780078401C504B18704D48425400
:100BC000281EA5F10101CDB2E1D11DE090E1032C79
:100BD0001AD110E0C6F30721484802780078401C7B
:100BE000464B187043488154184602780078401CE0
:100BF000187040488654281EA5F10101CDB202E0CC
:100C000050E148E046E0E5D1012C43D1032D41D12C
:100C100050460EF019F9C0F30722384801780078E1
:100C2000401C364B18703348425450460EF00CF9B5
:100C3000C1B2324802780078401C304B18702D4801
:100C4000815458460EF000F9C0F307212B48027872
:100C50000078401C294B18702648815458460EF0E5
:100C6000F3F8C1B2254802780078401C234B187075
:100C700020488154C6F30722184601780078401CAA
:100C800018701C484254184601780078401C1870AF
:100C9000184846540FE117488078402878D1154805
:100CA000C078052874DC1348C078052871DC114829
:100CB000C47845796806000E0E49887003200F49F4
:100CC0000870022C03D0032C01D0042C7BD119E036
:100CD0000008014000380140F8030020F80200201D
:100CE000080000206CF200086CF300080AD70B42E1
:100CF00052B89C42F8040020B802002011000020E5
:100D00000000C842012D5ED1022C1FD118E05046D0
:100D10000EF09AF8C0F307217A4802780078401C58
:100D2000784B18707848815450460EF08DF8C1B257
:100D3000744802780078401C724B187072488154D5
:100D4000281EA5F10101CDB2E1D13CE0032C21D157
:100D500018E058460EF078F8C0F307216948027889
:100D60000078401C674B18706748815458460EF055
:100D70006BF8C2B2634801780078401C614B187070
:100D800061484254281EA5F10101CDB2E1D11AE01B
:100D900060E05EE0042C16D110E0C6F3072259484B
:100DA00001780078401C574B187057484254184639
:100DB00001780078401C187053484654281EA5F14D
:100DC0000101CDB2E9D1022C43D1032D41D15046CE
:100DD0000EF03AF8C0F307224A4801780078401C28
:100DE000484B18704848425450460EF02DF8C2B295
:100DF000444801780078401C424B187042484254E5
:100E000058460EF021F8C0F307213E4802780078DA
:100E1000401C3C4B18703C48815458460EF014F866
:100E2000C1B2384802780078401C364B18703648FA
:100E30008154C6F30721184602780078401C1870C8
:100E400031488154184601780078401C18702E48AB
:100E5000465430E083202C494870022088700320DB
:100E60002849087027E02848807890B92648C0783B
:100E700005280EDC2448C078042804DC2248C47805
:100E80004079224908551F480078801E1D49087086
:100E900011E086201C4948700220887003201949FF
:100EA000087008E0802018494870012088700320ED
:100EB0001449087000BF00BF124801781248FFF7BC
:100EC00095FD0746C7F307210E4802780078401CBD
:100ED0000C4B18700C488154184601780078401C5F
:100EE000187009484754184601780748FFF76CFD09
:100EF0000748016804480CF0C1F900200449086063
:100F0000BDE8F09F11000020F80400200C00002034
:100F100008000020704710B501211B4806F0B1FF02
:100F200038B301201949087019481A4902681A484B
:100F30000CF00BF916480088000A1749891E087042
:100F40001348007848700021134A921E1048006828
:100F5000801C115400200E49086000210A4806F048
:100F6000C7FC0021084806F057FF0121064806F09B
:100F700099FF10BD704770477047704770477047C2
:100F80007047704770477047000400400001002020
:100F900004010020A8170020AA0F002008B5012195
:100FA000082006F010F84FF48070ADF80000102013
:100FB0008DF8030003208DF802006946184807F0F9
:100FC000D9F94FF48071164807F083FA08BD08B5C7
:100FD0000121102005F0F7FF0A20ADF800001020D5
:100FE0008DF8030003208DF8020069460D4807F0D4
:100FF000C1F908210B4807F06CFA0221094807F0F3
:1010000066FA42F20400ADF8000003208DF80200F9
:1010100048208DF803006946024807F0ABF908BD87
:10102000000C01400010014070B50446002503F09B
:1010300083FBA02003F0F9FB03F0BEFB204603F086
:10104000F4FB03F0B9FB03F077FBA12003F0EDFB09
:1010500003F0B2FB002003F01AFC054603F08CFB02
:101060000520FFF7A2FB284670BD70B505460C466B
:1010700003F062FBA02003F0D8FB03F09DFB2846A1
:1010800003F0D3FB03F098FB204603F0CEFB03F004
:1010900093FB03F071FB0520FFF787FB70BD70B574
:1010A00006460D4603F048FBA02003F0BEFB03F00C
:1010B00083FB304603F0B9FB03F07EFB1420FFF7FF
:1010C00053FB002406E0285D03F0AFFB03F074FB44
:1010D000601CC4B2082CF6DB03F04EFB0520FFF7C2
:1010E00064FB70BD70B506460C4603F025FBA020DE
:1010F00003F09BFB03F060FB304603F096FB03F02C
:101100005BFB03F019FBA12003F08FFB03F054FB02
:10111000002505E0012003F0BAFB6055681CC5B24C
:10112000072DF7DB002003F0B2FBE07103F024FB96
:101130000520FFF73AFB70BD70B50446E1498868A9
:101140008047E0490869804700BFDE48C169C4F3B1
:1011500007408847DB48C169C4F307208847E0B2ED
:10116000D84AD1698847D749886980470546D54913
:1011700048698047D349C8688047284670BD70B524
:1011800004460D46CF4988688047CE4908698047A4
:1011900044F00404CB48C169C4F307408847C948F8
:1011A000C169C4F307208847E0B2C64AD1698847BD
:1011B000C448C16928468847C24948698047C1492F
:1011C000C868804770BD2DE9F04104460E461746B9
:1011D0000025BC4988688047BA490869804700BF34
:1011E000B848C169C4F307408847B648C169C4F329
:1011F00007208847E0B2B34AD169884700BF05E0BD
:10120000B049886980477055681C85B2BD42F7DBDC
:10121000AC4948698047AB49C8688047BDE8F08160
:101220002DE9F04104460E4617460025A549886879
:101230008047A4490869804744F00404A148C16973
:10124000C4F3074088479F48C169C4F30720884713
:10125000E0B29C4AD169884700BF05E0705D994AB9
:10126000D1698847681C85B2BD42F7DB954948695A
:1012700080479449C8688047BDE8F08170B504464E
:101280000025002600BFA100491C4FF4005202EBCC
:10129000C100FFF751FF0646A100491C4FF4005260
:1012A00002EBC10101F58070FFF746FF00EB06205D
:1012B00086B2AEB1A100491C4FF4005202EBC1004E
:1012C000FFF73AFF0546A100491C4FF4005202EB1C
:1012D000C10101F58070FFF72FFF00EB052085B2FB
:1012E000B542D0D1284670BD70B504460025002611
:1012F00000BFA100491C4FF4185202EBC100FFF7D8
:101300001BFF0646A100491C4FF4185202EBC10115
:1013100001F58070FFF710FF00EB062086B2AEB13A
:10132000A100491C4FF4185202EBC100FFF704FF63
:101330000546A100491C4FF4185202EBC10101F50A
:101340008070FFF7F9FE00EB052085B2B542D0D1E1
:10135000284670BD2DE9F04704460F461646002585
:10136000A8460EB9BDE8F087A100491C4FF4105201
:1013700002EBC10101F58070FFF7DEFE8146A1009E
:10138000491C4FF4105202EBC100FFF7D5FE09EBE8
:10139000002085B22902A000801C01EBC008324663
:1013A00039464046FFF73CFFA81985B22912A20032
:1013B000521C4FF4105303EBC200FFF7E0FEE9B2FA
:1013C000A200521C4FF4105303EBC20202F58070CE
:1013D000FFF7D5FE00BFC5E72DE9F04704460F46ED
:1013E00016460025A8460EB9BDE8F087A100491CA5
:1013F0004FF4205202EBC10101F58070FFF79CFE13
:101400008146A100491C4FF4205202EBC100FFF7B6
:1014100093FE09EB002085B22902A000C01C01EB5D
:10142000C008324639464046FFF7CDFEA81985B2BE
:101430002912A200521C4FF4205303EBC200FFF705
:101440009EFEE9B2A200521C4FF4205303EBC202ED
:1014500002F58070FFF793FE00BFC5E72DE9F0416C
:1014600004460E460025A100491C4FF4205202EB11
:10147000C10101F58070FFF75FFE0746A100491C1E
:101480004FF4205202EBC100FFF756FE07EB00209D
:1014900085B2A81985B22912A200521C4FF420531C
:1014A00003EBC200FFF76BFEE9B2A200521C4FF43F
:1014B000205303EBC20202F58070FFF760FEBDE827
:1014C000F081000018000020704770477047704797
:1014D00001460878704701707047002070477047D8
:1014E00000B141B9AFF21F02FA4B9A60AFF2250387
:1014F000F84AD36002E0F74A9060D160704700B1CB
:1015000041B9AFF23702F34B1A61AFF23D03F14A32
:10151000536102E0EF4A10615161704700BFED4A2C
:10152000128802F48072002AF9D000B141B9AFF2FA
:101530005F02E84B9A61AFF26103E64AD36102E0D1
:10154000E44A9061D161704700BFE24A128802F418
:101550000072002AF9D000B141B9AFF28102DD4B2F
:101560009A61AFF28503DB4AD36102E0D94A906108
:10157000D161704710B54FF43850FFF7DDFD00F032
:10158000010008B1012400E00024204610BD10B580
:1015900000244FF43850FFF7CFFD00F0300008B1C1
:1015A000012400E00024204610BD10B54FF438504F
:1015B000FFF7C2FD044624F0800421464FF4385062
:1015C000FFF7DDFD4FF43850FFF7B6FD044644F059
:1015D000800421464FF43850FFF7D1FD10BD70B59F
:1015E000054600244FF43850FFF7A6FD044604F0EA
:1015F000400010B94FF0FF3070BD24F03804012DC9
:1016000002D144F0300401E044F0380421464FF4A4
:101610003850FFF7B4FDFFF7C8FF4FF43850FFF71D
:101620008BFD0446012D04D104F0300030B10020C0
:10163000E2E704F0380008B10020DDE74FF0FF30AA
:10164000DAE770B5044600254FF43850FFF774FD13
:101650000546C5F38010207005F03800202802D020
:10166000382803D100BF0120607002E000206070C4
:1016700000BF00BF05F03800102805D0182802D0A0
:10168000202804D100BF00BF0120A07002E000208C
:10169000A07000BF00BF05F03800082805D018284A
:1016A00002D0202804D100BF00BF0120E07002E07A
:1016B0000020E07000BF00BF70BD70B5054600247B
:1016C0002878012802D144F0400401E024F04004CD
:1016D0006878012802D144F0380412E0E878012843
:1016E00008D1A878012802D144F0180409E044F098
:1016F000080406E0A878012802D144F0100400E0B4
:1017000000BF21464FF43850FFF739FDFFF74DFF7A
:1017100070BD70B50026002400254FF4B050FFF7CF
:101720000BFD06464FF4C050FFF706FD0446254664
:1017300006EB052085B2284670BD70B50446E5B2BB
:10174000261229464FF4B050FFF719FD31464FF4E9
:10175000C050FFF714FD70BD70B5002600240025B1
:101760004FF4A850FFF7E8FC00F0F0064FF4B85033
:10177000FFF7E2FC0446254606EB052085B2284625
:1017800070BD70B50446E5B2261205F0F0014FF4C5
:10179000A850FFF7F4FC31464FF4B850FFF7EFFCC8
:1017A00070BD00B585B0062269464FF41060FFF7A2
:1017B0000AFD042204A99001FFF705FD042203A9F4
:1017C0004FF4A060FFF7FFFC042202A94FF4706001
:1017D000FFF7F9FC80210020FFF7D1FC0020FFF784
:1017E000ABFC062269464FF41060FFF719FD042296
:1017F00004A99001FFF714FD042203A94FF4A0608F
:10180000FFF70EFD042202A94FF47060FFF708FDF8
:1018100005B000BD2DE9F04105460E460027FFF753
:10182000C0FFF5B100BF002404E0285D384447B292
:10183000601C44B2082CF8DB102F03DD4FF0FF30A2
:10184000BDE8F08100240AE0295DA200521C4FF49B
:10185000F85303EBC200FFF792FC601C44B2082C63
:10186000F2DBEEB10027002404E0305D384447B2DB
:10187000601C44B2082CF8DB102F02DD4FF0FF3063
:10188000DEE700240AE0315DA200521C4FF4F05361
:1018900003EBC200FFF773FC601C44B2082CF2DBC0
:1018A0000020CDE72DE9FC4106460C46002500202E
:1018B00000900190102E7CD2DFE806F0080E1D1972
:1018C000212529354254575B5F606470FFF769FF3B
:1018D00072E00000180000201CB10094009808304D
:1018E0000190DDE90001FFF795FFBDE8FC8120884C
:1018F000FFF747FF60E0FFF72FFF20805CE02088C4
:10190000FFF71BFF58E0FFF704FF208054E020881A
:1019100001124FF49850FFF732FC21784FF4A05099
:10192000FFF72DFC48E04FF4A050FFF705FC0746F9
:101930004FF49850FFF700FC07EB002020803BE0BD
:101940008248807820708148C07860707F48007934
:10195000A0707E484079E0707C488079207100203A
:10196000607129E0FFF721FE26E02046FFF7A5FE83
:1019700022E02046FFF765FE1EE01DE02078FFF71D
:101980002EFEB2E7FFF703FEC5B268B2401C18B9DD
:101990004FF0FF30A9E70CE025700DE0FFF7EAFDFE
:1019A000C5B268B2401C10B94FF0FF309DE72570FA
:1019B00002E04FF0FF3098E700BF002095E770B5D8
:1019C00004464FF4D850FFF7B7FB20704FF4D050C7
:1019D000FFF7B2FB05464FF4C850FFF7ADFB05EB30
:1019E0000020608070BD10B5044621784FF4D850B7
:1019F000FFF7C5FB608801124FF4C850FFF7BFFB2B
:101A0000A1784FF4D050FFF7BAFB10BD10B50020FD
:101A1000FFF792FB10BD70B50446002524F03A0094
:101A200008B1681E70BD0020FFF786FB0546254300
:101A300029460020FFF7A3FB0020F3E710B504467A
:101A4000062221464FF41060FFF7BDFB042204F18B
:101A50000E019001FFF7B7FB042204F10A014FF4D5
:101A6000A060FFF7B0FB0422A11D4FF47060FFF7E8
:101A7000AAFB37480078A07435484178E174817832
:101A80002175C178617533480078A07510BD10B517
:101A90000446062221464FF41060FFF7C1FB0422E2
:101AA00004F10E019001FFF7BBFB042204F10A01CF
:101AB0004FF4A060FFF7B4FB0422A11D4FF4706047
:101AC000FFF7AEFBA07C22490870E07C4870207DC7
:101AD0008870607DC870A07D1E49087010BD70B50B
:101AE00005460C46062D1CD2DFE805F003070B0F58
:101AF00013172046FFF7CBFF16E02046FFF79EFFA7
:101B000012E02078FFF787FF70BDFFF77FFF20709E
:101B10000AE02046FFF767FF06E02046FFF74FFF89
:101B200002E04FF0FF30EFE700BF0020ECE770B5B8
:101B300004464FF43850FFF7FFFA0546C5F380001E
:101B4000E070C5F34000A07070BD000018000020D8
:101B5000380000203C00002010B5044600BF082CCF
:101B600002DD4FF0FF3010BD00BFA100491C4FF453
:101B7000807202EBC1001021FFF701FB00BFA10042
:101B8000491C4FF4807202EBC100FFF7D5FA002820
:101B9000F5D1A100491C4FF4007202EBC1001F21D6
:101BA000FFF7EDFA0120A040FC4909888143FB487A
:101BB00001800020FA4921F81400FA49085500BFB5
:101BC000A100491C4FF4407202EBC100FFF7B4FAC8
:101BD0000028F5D10120C6E72DE9F04104460E4664
:101BE00017461D4600BF082C03DD4FF0FF30BDE84F
:101BF000F08100BF012E04D0022E03D0042E03D1A9
:101C000001E000BF00BF02E06FF00400EFE700BF9B
:101C100005F0060010B16FF00500E8E705B3012EEE
:101C200002D0022E1AD106E005F0210010B96FF0A3
:101C30000500DCE713E005F0200028B105F0800086
:101C400010B96FF00500D2E705F0100028B105F0DB
:101C5000800010B96FF00500C9E700E000BF00BFC9
:101C60002046FFF779FF05F0F00242EA0601A200E4
:101C7000521C002303EBC200FFF781FA7FB9CA4868
:101C800007880088401CC8490880084600884FF62D
:101C9000F071884203D14FF44040C34908803912A3
:101CA000A200521C4FF4806303EBC200FFF767FAF7
:101CB000F9B2A200521C4FF4806303EBC20202F59A
:101CC0008070FFF75CFAA100491C4FF4807202EBB0
:101CD000C1000121FFF753FA00BFA100491C4FF4D6
:101CE000807202EBC100FFF727FA0028F5D105F05A
:101CF0000100A040AD4909880843AC490880012093
:101D0000A040A64909888143A44801800020A44935
:101D100021F81400A349085500BFA100491C4FF445
:101D2000407202EBC100FFF707FA0028F5D060B25D
:101D30005DE710B5044600BF082C02DD4FF0FF3010
:101D400010BD00BF00BFA100491C002202EBC10072
:101D5000FFF7F2F900F00F00012802D06FF0040045
:101D6000EEE700BF00BFA100491C4FF4407202EB38
:101D7000C100FFF7E1F9132802D06FF00200DFE79E
:101D800000BFA100491C4FF4807202EBC100022188
:101D9000FFF7F5F900BFA100491C4FF4807202EB78
:101DA000C100FFF7C9F90028F5D10EE0A100491CD8
:101DB0004FF4807202EBC100FFF7BEF928B920464C
:101DC000FFF7CAFE6FF00300BAE7A100491C4FF409
:101DD000407202EBC100FFF7AFF91428E6D10120F1
:101DE000AEE770B504460D46164600BF082C02DD6E
:101DF0004FF0FF3070BD00BF00BFA100491C0022A2
:101E000002EBC100FFF798F900F00F00012802D0A3
:101E10006FF00400EEE700BF00BFA100491C4FF4C3
:101E2000407202EBC100FFF787F9132802D06FF070
:101E30000200DFE700BF2978687861F31F200146C0
:101E4000A87861F31F200146287861F31F2001461E
:101E5000481C00B111B96FF00B00CBE716B96FF059
:101E60000A00C7E7A100491C4FF4406202EBC10021
:101E700004222946FFF7D4F93112A200521C4FF474
:101E8000805303EBC200FFF77AF9F1B2A200521CB3
:101E90004FF4805303EBC20202F58070FFF76FF935
:101EA000A100491C4FF4807202EBC1000421FFF72E
:101EB00066F900BFA100491C4FF4807202EBC1001B
:101EC000FFF73AF90028F5D10120A04037490988E9
:101ED000084008B100208DE7A100491C4FF4407272
:101EE00002EBC100FFF728F9172819D0A100491CFF
:101EF0004FF4007202EBC100FFF71EF900F008007A
:101F000058B1A100491C4FF4007202EBC100082136
:101F1000FFF735F96FF00C006CE76FF00F0069E721
:101F2000012067E710B5044600BF082C02DD4FF022
:101F3000FF3010BD00BF00BFA100491C002202EB12
:101F4000C100FFF7F9F800F00F00012802D06FF090
:101F50000400EEE700BFA100491C4FF4807202EBC1
:101F6000C1000821FFF70BF900BFA100491C4FF485
:101F7000807202EBC100FFF7DFF80028F5D10120E5
:101F8000A040064909888143044801800120A040FF
:101F900006490988084058B10020CAE742000020DD
:101FA00034050020440000203E00002040000020B6
:101FB00010E0A100491C4FF4007202EBC100FFF7D2
:101FC000BBF800F0080028B12046FFF7C5FD6FF010
:101FD0000C00AEE7A100491C4FF4407202EBC100B7
:101FE000FFF7AAF80028E4D10120A2E72DE9F0418B
:101FF0000446884615460026002700BF082C02DD4F
:10200000701EBDE8F08100BF00BFA100491C002286
:1020100002EBC100FFF790F800F00F00012802D09A
:102020006FF00400EDE700BF00BF15B96FF00D00C1
:10203000E7E700BFA100491C4FF4407202EBC1006A
:10204000FFF77AF80646172E04D01C2E02D06FF048
:102050000600D6E70120A040FE490988084040B3A9
:10206000A100491C4FF4007202EBC100FFF764F8B5
:1020700000F01F0606F0100080B1A100491C4FF4CB
:10208000007202EBC1001021FFF779F80120A04097
:10209000F04909888143EF4801800AE006F0080012
:1020A00028B12046FFF758FD6FF00C00A9E700208B
:1020B000A7E7A100491C4FF4F85202EBC100FFF75B
:1020C0003BF84FF6FF7101EA8027BD4200DD3D4637
:1020D00023E02046FFF7D2F80746A100491C4FF441
:1020E000407202EBC100FFF727F80646172E07D013
:1020F0001C2E05D02046FFF72FFD6FF0060080E76D
:102100000120A040D4490988084018B1BD4201DD32
:10211000002076E7BD4200DC00E0DAE700BF2A4697
:1021200041462046FFF716F9A100491C4FF4807282
:1021300002EBC1002021FFF722F800BFA100491CDB
:102140004FF4807202EBC100FEF7F6FF0028F5D1D4
:102150000120A040BF4909880843BE49088028469D
:102160004FE72DE9F04105460F4616460024284664
:10217000FFF7BAF80446DCB1B44200DA264632462C
:1021800039462846FFF728F9A900491C4FF4807208
:1021900002EBC1004021FEF7F2FF00BFA900491C7D
:1021A0004FF4807202EBC100FEF7C6FF0028F5D1A4
:1021B0002046BDE8F0812DE9F04704468A461646E0
:1021C0001D46DDF820900027B84600BF082C02DD30
:1021D000781EBDE8F08700BFA100491C002202EB79
:1021E000C100FEF7A9FF00F00F00022802D004286A
:1021F00002D100E000BF02E06FF00400E9E700BF99
:1022000000BF16B96FF00D00E3E700BF28786978CA
:1022100060F31F210846A97860F31F210846E9787A
:1022200060F31F210846286810B96FF00B00D0E753
:10223000B9F1000F02D16FF00A00CAE7A100491CF2
:102240004FF4407202EBC100FEF776FF0746422FC3
:1022500004D0222F02D06FF00600BAE7A100491C7B
:102260004FF4406202EBC10004222946FEF7D8FF7A
:102270004FEA2921A200521C4FF4805303EBC20005
:10228000FEF77DFF09F0FF01A200521C4FF48053BE
:1022900003EBC20202F58070FEF771FFA100491C3A
:1022A0004FF4F85202EBC100FEF746FF4FF6FF7104
:1022B00001EA8028464500DD46461CE02046FEF740
:1022C000DDFF8046A100491C4FF4407202EBC100C3
:1022D000FEF732FF10B96FF003007AE70120A0404B
:1022E0005D490988084018B1464501DD002070E7C6
:1022F000464500DC00E0E1E700BF3246514620469B
:10230000FFF728F8A100491C4FF4807202EBC100CE
:102310002021FEF734FF00BFA100491C4FF480725A
:1023200002EBC100FEF708FF0028F5D125E0A1006F
:10233000491C4FF4007202EBC100FEF7FDFE00F0F5
:102340001F0707F0100048B1A100491C4FF40072AC
:1023500002EBC1001021FEF712FF0FE007F00800AA
:1023600058B1A100491C4FF4007202EBC1000821D2
:10237000FEF705FF6FF00C002BE7D8E700BF3046F3
:1023800027E72DE9FC4704468A4616461F46DDF836
:102390002880002500BF082C02DD681EBDE8FC87F0
:1023A00000BFA100491C002202EBC100FEF7C4FEE1
:1023B000814600F00F00022802D0042802D100E07C
:1023C00000BF02E06FF00400E8E700BF00BF16B9ED
:1023D0006FF00D00E2E700BF204830F81400E8B9C4
:1023E0001AE02046FEF780FF0546A100491C4FF485
:1023F000407202EBC100FEF79FFE10B96FF00300C0
:10240000CCE70120A04014490988084010B10DB95B
:102410000020C3E705B100E0E3E700BF002010495A
:10242000085509F00700022802D004287ED161E097
:102430000A4830F81400E8BB082269462046FEF737
:10244000CBFFA100491C4FF4807202EBC100402178
:1024500008E0000042000020400000203405002079
:1024600044000020FEF78BFE00BFA100491C4FF482
:10247000807202EBC100FEF75FFE0028F5D19DF8E7
:10248000000038709DF8010078709DF80200B87067
:102490009DF80300F8709DF80400A8F800009DF86E
:1024A000050098F8001000EB0120A8F800009DF846
:1024B000060000E00EE0F84921F814009DF807003E
:1024C00011F8141000EB0120F34921F814008020CA
:1024D000F2490855F04830F81400B04201DD3546A5
:1024E00002E0ED4830F814502A4651462046FEF7E7
:1024F00073FF55E0E84830F81400A8BB0222694693
:102500002046FEF769FFA100491C4FF4807202EBE0
:10251000C1004021FEF733FE00BFA100491C4FF46B
:10252000807202EBC100FEF707FE00E030E00028F9
:10253000F3D19DF80000D84921F814009DF801005E
:1025400011F8141000EB0120D34921F814000846BB
:1025500030F8140040F2EA51884206DD2046FFF7C9
:10256000FBFA6FF47A7019E702E08020CB49085536
:10257000C94830F81400B04201DD354602E0C648D3
:1025800030F814502A4651462046FEF725FF07E052
:1025900029462046FEF762FFBF4820F8145000BFCE
:1025A00000BFA100491C4FF4807202EBC100402122
:1025B000FEF7E5FD00BFA100491C4FF4807202EB5D
:1025C000C100FEF7B9FD0028F5D1B34830F814007A
:1025D000401BB14921F81400084630F8140028B116
:1025E000AE48005D40F00100AC4908552846D5E6EC
:1025F0002DE9F04104460E461546002700BF082C81
:1026000002DD781EBDE8F08100BF082E7DD2DFE834
:1026100006F0041C23313F515D702F78012F07D144
:102620000120A0409E49098808439D4908800BE08D
:102630003FB90120A0409A49098881439848018008
:1026400002E06FF00900DDE762E095480088204174
:1026500000F0010028705BE0A100491C4FF4F85223
:1026600002EBC100FEF768FD4FF6FF7101EA802022
:1026700028804DE0A100491C4FF4F05202EBC1004C
:10268000FEF75AFD4FF6FF7101EA802028803FE0F7
:1026900028781F2802DD6FF00900B3E72A7802F0DE
:1026A0001F01A200521C4FF4007303EBC200FEF79F
:1026B00066FD2DE0A100491C4FF4007202EBC10041
:1026C000FEF73AFD00F01F00287021E028781F284F
:1026D00002DD6FF0090095E72A7802F01F01A200E1
:1026E000521C4FF4305303EBC200FEF748FD0FE0DD
:1026F0000BE0A100491C4FF4305202EBC100FEF781
:102700001BFD00F01F00287000BF6FF0090079E783
:1027100000BF012076E770B504460E46154600BF9F
:10272000082C02DD4FF0FF3070BD00BF082E76D2BE
:10273000DFE806F0B8040E182E394F982978A20069
:10274000521C4FF4B05303EBC200FEF718FDACE08F
:102750002978A200521C4FF4A85303EBC200FEF7E5
:102760000EFDA2E02A881112A200521C4FF49053D1
:1027700003EBC200FEF703FD2978A200521C4FF4C0
:10278000905303EBC20202F58070FEF7F8FC8CE078
:10279000A100491C4FF4406202EBC100042229460B
:1027A000FEF73EFD81E02A881112A200521C4FF470
:1027B000805303EBC200FEF7E2FC2978A200521C12
:1027C0004FF4805303EBC20202F58070FEF7D7FC92
:1027D0006BE000BFA100491C002202EBC100FEF724
:1027E000ABFC00F00F00012802D06FF004009BE763
:1027F00000BFA100491C4FF43C5202EBC100FEF7A0
:102800009BFC10B16FF001008EE7A100491C4FF452
:10281000807202EBC1002221FEF7B1FC17E041E01B
:10282000A100491C4FF4007202EBC100FEF784FCCA
:1028300000F0080058B1A100491C4FF4007202EBEF
:10284000C1000821FEF79BFC6FF00C006CE7A100B3
:10285000491C4FF4807202EBC100FEF76DFC0028AA
:10286000DED122E000BFA100491C002202EBC10022
:10287000FEF762FC00F00F00012802D06FF00400A8
:1028800052E700BF2978A200521C4FF43C5303EBDF
:10289000C200FEF774FC08E034050020440000206C
:1028A000400000206FF009003EE700BF01203BE739
:1028B0002DE9F04104460E46154600BF082C03DD05
:1028C0004FF0FF30BDE8F08100BF0D2E6FD2DFE882
:1028D00006F007121C263D48B55F7A7F848EA10062
:1028E000A100491C002202EBC100FEF725FC00F00C
:1028F000F0002870A5E0A100491C4FF4B05202EB93
:10290000C100FEF719FC28709BE0A100491C4FF4A0
:10291000A85202EBC100FEF70FFC287091E0A10065
:10292000491C4FF4905202EBC10101F58070FEF793
:1029300003FC0746A100491C4FF4905202EBC10072
:10294000FEF7FAFB07EB0020287000BFA100491C2E
:102950004FF4406202EBC10004222946FEF733FC2B
:102960006FE0A100491C4FF4805202EBC10101F558
:102970008070FEF7E1FB0746A100491C4FF480522E
:1029800002EBC100FEF7D8FB07EB0020288058E0DF
:1029900000BFA100491C002202EBC100FEF7CCFBE6
:1029A00000F00F00012803D06FF004008AE745E033
:1029B00000BFA100491C4FF43C5202EBC100FEF7DE
:1029C000BBFB28803DE02046FEF758FC288000BF76
:1029D0002046FEF789FC288000BFA100491C4FF467
:1029E000407202EBC100FEF7A7FB287029E0A100AE
:1029F000491C002202EBC100FEF79EFB012804D116
:102A00002046FEF771FC288003E00F4830F81400E0
:102A1000288016E000BFA100491C002202EBC10083
:102A2000FEF78AFB00F00F00012802D06FF00400CF
:102A300048E700BF0548005D287002E06FF0010024
:102A400040E700BF01203DE734050020440000209E
:102A500010B50422F9494FF47060FEF7E1FB04223F
:102A6000F7494FF4A060FEF7DBFB0422F549900123
:102A7000FEF7D6FB10BD10B580210020FEF77FFBCE
:102A80000020FEF759FBFFF7E3FF0622EE494FF463
:102A90001060FEF7C5FB10BD10B580210020FEF7C9
:102AA0006EFB0020FEF748FB0622E7494FF410605A
:102AB000FEF7B6FB10BD10B5AFF26B03E34C23601D
:102AC000AFF24D03E24C2360AFF23303E14C2360DD
:102AD00008B1DE4B186009B1DD4B19600AB1DD4B5E
:102AE0001A6010BD7CB5062269464FF41060FEF7EF
:102AF0006AFB0120D84909680870D74909684870FD
:102B00000620D549096888700020D3490968C87033
:102B1000D1480068051DD1480068000E2870CF48D4
:102B20000068000C6870CD480088000AA870CB4887
:102B30000078E8700020C84909680881C648006824
:102B400000F10A058020287000206870C2490968D9
:102B500008730021C04800684173BF480068817352
:102B6000BD480068C1730020BB4909680874002192
:102B7000B94800684174B84800688174B648006874
:102B8000C1740020B449096808750021B248006882
:102B90004175B14800688175AF480068C175002073
:102BA000AD49096808760021AB4800684176AA481B
:102BB00000688176A8480068C176A3480078A649D5
:102BC00009680877A0484178A348006841779E4883
:102BD0008178A148006881779B48C1789E48006849
:102BE000C177994801799C48006880F82010964880
:102BF00041799948006880F82110062406E00021F8
:102C0000954800681C300155601CC4B2102CF6DBDE
:102C1000002406E00021904800682C300155601C1B
:102C2000C4B2402CF6DB002406E000218A4800688C
:102C30006C300155601CC4B2802CF6DB63208649E1
:102C4000096881F8EC0082218348006880F8ED1063
:102C500053218148006880F8EE1063217E480068A7
:102C600080F8EF107CBD7CB50024FFF73BFF042407
:102C700035222146641C78480068EC304254012219
:102C80002146641C74480068EC3042542146641CA0
:102C900071480068EC3042543D222146641C6E4865
:102CA0000068EC30425407222146641C6A480068E0
:102CB000EC30425401222146641C67480068EC3025
:102CC0004254614802782146641C63480068EC3035
:102CD00042545D4842782146641C5F480068EC30ED
:102CE0004254594882782146641C5B480068EC30A5
:102CF00042545548C2782146641C57480068EC305D
:102D00004254514802792146641C53480068EC3013
:102D100042544D4842792146641C4F480068EC30CB
:102D200042540C222146641C4B480068EC3042544B
:102D300000222046611C8CB247490968EC310A54D4
:102D400000250AE04648425D2046611C8CB242499B
:102D50000968EC310A54681C85B24148405D00287E
:102D6000F0D13948C2782046611C8CB23A490968D2
:102D7000EC310A54344802792046611C8CB2364941
:102D80000968EC310A54304842792046611C8CB203
:102D900031490968EC310A54E81CC1B2281D221AD5
:102DA0002D480068EC30815437222046611C8CB2DB
:102DB00029490968EC310A5406222046611C8CB26C
:102DC00025490968EC310A5401222046611C8CB265
:102DD00021490968EC310A5403222046611C8CB257
:102DE0001D490968EC310A5406222046611C8CB248
:102DF00019490968EC310A540F222046611C8CB233
:102E000015490968EC310A543A222046611C8CB2FB
:102E100011490968EC310A543B222046611C8CB2EE
:102E20000D490968EC310A54FF222046611C8CB21E
:102E300009490968EC310A5425461AE0550000207A
:102E40005D00002059000020840000208C0000203C
:102E500090000020940000207800002074000020E2
:102E60007C0000200021FE480068EC304155681CC1
:102E700085B2B5F59C7FF5DBFF208DF804008DF859
:102E800005008DF806008DF80700432001AB4FF4D4
:102E900009720090F2480168F2480078FFF78BF958
:102EA0007CBD7CB50024FFF71DFEEF4800780328A9
:102EB00003D0ED48007804282CD10020E8490968A7
:102EC00088720021E6480068C172E8480078E44949
:102ED00009680873E5484178E14800684173E348B0
:102EE0008178DF4800688173E048C178DC48006879
:102EF000C173DF4800788DF80400DD4840788DF814
:102F00000500DB4880788DF80600D948C0788DF838
:102F1000070008E0FF208DF804008DF805008DF80B
:102F200006008DF80700042435222146641CCC4895
:102F30000068EC30425401222146641CC8480068F5
:102F4000EC30425403222146641CC5480068EC3032
:102F500042543D222146641CC1480068EC30425472
:102F600007222146641CBE480068EC30425401220E
:102F70002146641CBA480068EC304254BD480278CF
:102F80002146641CB6480068EC304254B948427887
:102F90002146641CB2480068EC304254B54882783F
:102FA0002146641CAE480068EC304254B148C278F7
:102FB0002146641CAA480068EC304254AD480279AE
:102FC0002146641CA6480068EC304254A948427966
:102FD0002146641CA2480068EC3042549DF807006A
:102FE000FF2867D132222046611C8CB29C490968B7
:102FF000EC310A5404222046611C8CB298490968BD
:10300000EC310A54994802782046611C8CB29449EC
:103010000968EC310A54954842782046611C8CB20C
:103020008F490968EC310A54904882782046611C27
:103030008CB28B490968EC310A548C48C27820461E
:10304000611C8CB286490968EC310A54362220464C
:10305000611C8CB282490968EC310A540422204672
:10306000611C8CB27E490968EC310A5480480278B0
:103070002046611C8CB27A490968EC310A547C48BC
:1030800042782046611C8CB275490968EC310A54BB
:10309000774882782046611C8CB271490968EC310E
:1030A0000A547348C2782046611C8CB26C49096886
:1030B000EC310A540C222046611C8CB26849096824
:1030C000EC310A5400222046611C8CB26449096824
:1030D000EC310A54002509E06748425D2046611C36
:1030E0008CB25F490968EC310A546D1C6248405D3E
:1030F0000028F1D15F48C2782046611C8CB2584943
:103100000968EC310A545B4802792046611C8CB294
:1031100053490968EC310A54564842792046611CEB
:103120008CB24F490968EC310A54E81CC1B2281D21
:10313000221A4B480068EC30815437222046611C2B
:103140008CB247490968EC310A5408222046611CB8
:103150008CB243490968EC310A5401222046611CB3
:103160008CB23F490968EC310A5403222046611CA5
:103170008CB23B490968EC310A5406222046611C96
:103180008CB237490968EC310A540F222046611C81
:103190008CB233490968EC310A543A222046611C4A
:1031A0008CB22F490968EC310A543B222046611C3D
:1031B0008CB22B490968EC310A541F222046611C4D
:1031C0008CB227490968EC310A5421222046611C3F
:1031D0008CB223490968EC310A54FF222046611C55
:1031E0008CB21F490968EC310A54254605E00021DC
:1031F0001B480068EC3041556D1CB5F59C7FF6DB33
:10320000432001AB4FF4097200901548016815483E
:103210000078FEF7D0FF7CBD7CB50024FFF762FC90
:10322000042400200E490968887200210C480068B7
:10323000C17235222146641C09480068EC304254B2
:1032400001222146641C06480068EC3042540422E6
:103250002146641C02480068EC3042543D220DE0D7
:10326000780000204C000020650000205500002060
:103270004D000020840000207C0000202146641CBA
:10328000F7480068EC30425407222146641CF44899
:103290000068EC30425401222146641CF04800686A
:1032A000EC304254EF4802782146641CEC48006838
:1032B000EC304254EB4842782146641CE8480068F0
:1032C000EC304254E74882782146641CE4480068A8
:1032D000EC304254E348C2782146641CE048006860
:1032E000EC304254DF4802792146641CDC48006817
:1032F000EC304254DB4842792146641CD8480068CF
:10330000EC30425432222146641CD5480068EC302F
:10331000425404222046611C8CB2D1490968EC3128
:103320000A54D14802782046611C8CB2CC49096805
:10333000EC310A54CC4842782046611C8CB2C84912
:103340000968EC310A54C84882782046611C8CB266
:10335000C3490968EC310A54C348C2782046611C4D
:103360008CB2BF490968EC310A5436222046611CF0
:103370008CB2BB490968EC310A5404222046611C16
:103380008CB2B7490968EC310A54B8480278204633
:10339000611C8CB2B2490968EC310A54B3484278D6
:1033A0002046611C8CB2AE490968EC310A54AF4822
:1033B00082782046611C8CB2A9490968EC310A5414
:1033C000AA48C2782046611C8CB2A5490968EC3134
:1033D0000A54FF222046611C8CB2A1490968EC31D5
:1033E0000A54254605E000219D480068EC3041550F
:1033F0006D1CB5F59C7FF6DBFF208DF804008DF881
:1034000005008DF806008DF80700432001AB4FF44E
:10341000097200909248016895480078FEF7CBFE4B
:103420007CBD2DE9FF4192480078FDF75DFF071E46
:103430000BDD01A802AB3A460090894801688C4830
:103440000078FEF79EFF87B203E0002004B0BDE8DD
:10345000F081BDF80400432874D181480068007FE2
:1034600080490978884224D17D480068407F7D49A1
:10347000497888421DD17A480068807F79498978E7
:10348000884216D176480068C07F7649C97888425C
:103490000FD17348006890F820007249097988427A
:1034A00007D16F48006890F821006E494979884239
:1034B00001D00020CAE74FF0000869480468F034E2
:1034C000A7F1F000051989E0207833284ED007DCF9
:1034D00070B1012813D0032821D0062878D132E01A
:1034E000352807D0362861D0FF2871D12C4674E0EA
:1034F000641C72E0641C641C14F8018B6DE0641C95
:10350000641C14F8010B5B49087014F8010B487037
:1035100014F8010B887014F8010BC8705DE0641C8E
:1035200014F8016B14F8010B5349087014F8010BDF
:10353000487014F8010B887014F8010BC870301F24
:1035400004444AE04DE0641C14F8016B14F8010BCC
:103550004A49087014F8010B487014F8010B887080
:1035600014F8010BC870301F044436E0641C14F8D2
:10357000016B14F8010B4249086014F8011B404824
:10358000006801EB00203E49086014F8011B3C482C
:10359000006801EB00203A49086014F8011B384824
:1035A000006801EB00203649086016E0641C14F83E
:1035B000016B14F8010B2D49087014F8010B4870C9
:1035C00014F8010B887014F8010BC87005E0FFE7D0
:1035D000641C14F8016B344400BF00BFAC42FFF41C
:1035E00073AF4FFA88F031E70020264908600A20BF
:1035F00025490860002025490870704710B501244E
:10360000224890F90000022844DA1F4800681D494A
:103610000968884258D21E4890F90000012804D059
:10362000022805D0042809D105E0FFF71CFB06E0BD
:10363000FFF737FC03E0FFF734FC00E000BF00BFFA
:10364000002010490860084600680A300E490860EA
:103650000E480078401C40B20C49087034E000006D
:103660007800002084000020550000204D0000203C
:103670004C0000205D000020590000206100002067
:10368000680000206C000020700000206600002010
:1036900065000020D64890F90000012804D00228D7
:1036A00007D004280CD105E00020D149087000247F
:1036B00007E000BFFFF7D7FA0120CD49087000E00E
:1036C00000BF00BFFFF790FF204610BD38B54FF494
:1036D000D850FDF731FD054603214FF4D850FDF7D2
:1036E0004EFD41F28830C34B1122C3A10090C74860
:1036F0000078FEF760FD044629464FF4D850FDF7E8
:103700003EFD04F10D0008B9012038BDFFF784FD2E
:10371000BF48046800BFBE480068001B0228FAD3F7
:103720000020F2E770B5B2480078062801D10520E4
:1037300070BDB64909788900491C4FF4407202EB0C
:10374000C100FDF7F9FC222806D000234422022103
:10375000AE480078FEF740FA0125FFF762FEC4B2DA
:10376000A34890F90000052877D2DFE800F0030FA6
:103770002C4F770000209F49087048708870C870EF
:10378000FFF771FA01209A4908709CE0022C16D1CB
:10379000A0480068007C974908709E480068407CFB
:1037A00048709C480068807C88709A480068C07C9B
:1037B000C870FFF776FB02208D49087002E0FFF722
:1037C0001DFF05467FE0052C14D1FFF77FFF40B1B8
:1037D000914800688047FFF707FF0320844908707D
:1037E00013E0FFF701FF8D48006880470020804903
:1037F00008700AE0062C05D1FFF7F6FE01207C498F
:10380000087002E0FFF7FAFE05465CE004258448F4
:103810000068401C00B37E48006881490968B0EB2D
:10382000510F19D90024734800787E4908707148F7
:10383000407848706F48807888706E48C078C8704B
:1038400079480068401C78490860FFF72AFBFFF7B9
:10385000CBFE04206649087035E033E00425052CD2
:1038600024D10020714908706E48007861490978B8
:10387000884211D16B4840785E49497888420BD123
:10388000684880785B498978884205D16548C07866
:103890005849C978884203D00325654800688047A5
:1038A000FFF7A2FE0320524908700AE0062C05D15A
:1038B000FFF79AFE01204E49087002E0FFF79EFED6
:1038C000054600E000BF00BF284631E710B54F486D
:1038D0000078FEF741F906204549087010BD38B55B
:1038E00004460D4600200090062252494FF4106015
:1038F000FDF769FC4F4800784E49497808434D4927
:10390000897808434B49C97808434A4909790843EB
:1039100048494979084378B9002046490870082089
:103920004870DC2088700020C87008714871062239
:103930004FF41060FDF774FC34480470354805609E
:103940003D4839490860042269464FF47060FDF72C
:1039500067FC042269464FF47060FDF761FC0422A5
:1039600069469001FDF75CFCFFF73EFE0020204910
:10397000087038BD26480068401C2549086070471B
:103980001C49097801701B494978417019498978A7
:1039900081701849C978C170704728490978017049
:1039A0002649497841702549897881702349C97829
:1039B000C1707047224909780170214949784170E6
:1039C0001F49897881701E49C978C17070471D49A7
:1039D000097801701B49497841701A4989788170CA
:1039E0001849C978C17070470D48006870470000D9
:1039F0006500002055000020434845434B5F495077
:103A00005F434F4E464C4943540000004C00002099
:103A10006C000020780000208C0000209400002022
:103A20006800002051000020740000206600002083
:103A300090000020840000207856341259000020A5
:103A40005D0000206100002008B50121042003F082
:103A5000BAFA0121082003F0B6FA0121102003F080
:103A6000B2FA0121080303F0AEFAE020ADF800003D
:103A700003208DF8020018208DF8030069463F48A6
:103A800004F078FC1020ADF8000003208DF802004F
:103A900010208DF803006946384804F06BFC1021B3
:103AA000364804F014FD08BD00B585B0FFF7CCFF23
:103AB0000020ADF80C00ADF800004FF48270ADF8B6
:103AC00002000020ADF80400ADF80600ADF80800D3
:103AD0004FF40070ADF80A000020ADF80E0007208A
:103AE000ADF810006946264804F0B8FD01212448CD
:103AF00004F0BFFE0121224804F076FE05B000BDAF
:103B000000BF1F49098901F002010029F9D01C49B1
:103B1000888100BF1A49098901F001010029F9D003
:103B200017498989704700BF1548008900F00200D5
:103B30000028F9D0FF201249888100BF1048008971
:103B400000F001000028F9D00D488089C0B270470C
:103B5000012080F3108800BF7047002080F3108898
:103B600000BF704710B51021044804F0B2FC10BD2E
:103B700010B51021014804F0AAFC10BD0008014056
:103B8000003001402DE9FE434FF40A70FDF7D4FAEE
:103B900000F0040020B104214FF40A70FDF7EFFAA1
:103BA0000120FDF7A1FBFD49086000287EDD1921F9
:103BB000FB4809F041FB4FF40062F9490120FEF790
:103BC000D0FAF84908600846006819286ED1F44810
:103BD0000078EF28FAD1F248007E1D28F6D1F0488F
:103BE00040780628F2D1002405E0ED48005DEE495A
:103BF0000855601CC4B2EB4800688442F5DBE94814
:103C0000008882B2E8490120FEF7F0F9E648C07A60
:103C100030384FF47A714843E349097B303901EB7E
:103C2000C10202EB011100EB8101DF48407B30381B
:103C300000EB800001EB4001DB48807B303808441A
:103C4000DA49C8600846C068FF21B0FBF1F0C5B290
:103C50002946FF20FDF709FAD448C068FF21B0FBD0
:103C6000F1F201FB12052946FE20FDF7FEF9CE48D0
:103C7000017CFD20FDF7F9F9CB48417CFC20FDF7E4
:103C8000F4F9C948817CFB20FDF7EFF9C648C17CF7
:103C9000FA20FDF7EAF9C448017DF920FDF7E5F9BE
:103CA000C148417DF820FDF7E0F900E046E0BE495B
:103CB000097C08020BF004F9BC49C861BA49487C88
:103CC0000BF016F90646B948C16930460AF058FFAC
:103CD0000546B7490AF0C2FFB449C861B249897CB8
:103CE00008020BF0EDF8B1494862AF49C87C0BF00F
:103CF000FFF80646AD48416A30460AF041FF0546E6
:103D0000AB490AF0ABFFA9494862A748407D488209
:103D1000486A0AF009FF05460E46A449C8690AF038
:103D200003FF07460B46A148408ACDE900560290A2
:103D30009E483A46C1689FA001F0E2FABDE8FE83C2
:103D40002DE9F041002540F2E370984908810620F2
:103D500088720520C872EF20A149087004204870BD
:103D60004D2088704520C870492008718F4800890F
:103D70000A2190FBF1F090FBF1F201FB12003030D0
:103D800097494871894800890A2190FBF1F201FBAB
:103D900012003030924988718448807A0A2190FB61
:103DA000F1F030308E49C8718048807A0A2190FB4A
:103DB000F1F201FB12003030894908727B48C07A69
:103DC0000A2190FBF1F03030854948727748C07A7B
:103DD0000A2190FBF1F201FB120030308049887219
:103DE0007248C0684FF47A71B0FBF1F00A21B0FB61
:103DF000F1F201FB120030307949C8726B48C0689B
:103E00006421B0FBF1F00A21B0FBF1F201FB1200DA
:103E10003030734908736548C0680A21B0FBF1F07F
:103E2000B0FBF1F201FB120030306D4948735F487E
:103E3000C0680A21B0FBF1F201FB12003030684982
:103E400088735A4988695A490AF09AFE06465748C3
:103E5000C16930460BF060F903D20B206049C8738A
:103E600042E0524A9169D0690BF056F803D20D2016
:103E70005B49C87338E04D4A116A506A0BF04CF93F
:103E800003D212205649C8732EE04849086A4849AF
:103E90000BF074F906464548416A30460BF03CF891
:103EA00003D211204E49C8731EE04048408A3F4962
:103EB000098A884203DA10204949C87314E03B4854
:103EC000418A008A3230814203DA0F204449C873A4
:103ED0000AE03648007D012803D114204049C87308
:103EE00002E000203E49C8733049886930490BF030
:103EF00047F807463B490AF0B1FE06460AF0C0FF04
:103F0000374908742949886929490BF039F8064668
:103F10000AF09AFFFF2190FBF1F201FB12003049F9
:103F200048742249086A22490BF02AF807462D49AD
:103F30000AF094FE06460AF0A3FF294988741B493B
:103F4000086A1B490BF01CF806460AF07DFFFF21AA
:103F500090FBF1F201FB12002149C8741348008A5A
:103F6000FF2190FBF1F01E4908751048008AFF21DF
:103F700090FBF1F201FB1200194948750B49886961
:103F800000210AF02DFF2FD00849086A00210AF00D
:103F900027FF29D000201249887528E0C80000209A
:103FA00044050020D0000020C10D0020B8020020F0
:103FB000000020412D2D2D57353530302D2D2D3E33
:103FC000253034642025332E326627432025332EB6
:103FD000326625252025303364200D0A00000000BC
:103FE000A80D002000007F430120DA4988750124D4
:103FF00004E0D848005D0544601CC4B2172CF8DB0F
:10400000FF20B5FBF0F100FB1150D249C8751D200F
:1040100008761920D04908600846008882B2CD4948
:104020000120FDF7E3FFBDE8F08100B58BB0002073
:1040300009900A90C949FDF752FD03A90120FDF737
:104040004EFD09A90820FDF72DFC9DF8220002284D
:1040500004D109A9C2A001F053F903E009A9C8A03D
:1040600001F04EF9CFA001F04BF99DF811109DF829
:1040700010009DF80F20CDE9002002919DF80E3030
:104080009DF80D209DF80C10CEA001F039F99DF897
:10409000150000909DF814309DF813209DF8121023
:1040A000D4A001F02DF99DF81D0000909DF81C3062
:1040B0009DF81B209DF81A10D5A001F021F99DF85C
:1040C000190000909DF818309DF817209DF81610E3
:1040D000D7A001F015F903A8407D009003A8037D47
:1040E0009DF81F209DF81E10D8A001F009F9ADA081
:1040F00001F006F90BB000BD10B59848801DFFF720
:104100003FFC96480E30FFF748FC94480A30FFF712
:1041100051FC92481230FFF75AFC02208F498875F3
:10412000FFF783FFFFF760FC04462146CEA001F0B5
:10413000E7F810BD10B5FFF7F5FA00287CD002288B
:1041400004D0032803D0042803D103E000BFFFF705
:10415000D3FF95E04FF44A70FCF7EEFFC9490860C1
:1041600008460068002855D0132804D017281AD014
:104170001C2873D134E0C4A001F0C2F8CA480088FA
:1041800082B2CA490120FDF72CFEBE4908600846EC
:104190000068103030B9C6A001F0B2F840F6B8306F
:1041A000FCF703FB5BE0D148007860B94FF40A707C
:1041B000FCF7C2FF00F01F00012804D1CB490870B2
:1041C000CBA001F09DF8D14800682821B0FBF1F2A6
:1041D00001FB120008B9FFF7B3FDFFF7D3FC3EE087
:1041E000CBA001F08DF80120FDF79CFEA5490860E9
:1041F000012808D0D0A001F083F84FF4FA70FCF742
:10420000D4FA00F099F80020B8490870D6A001F05F
:1042100077F824E0DDA001F073F8A348008882B2AB
:10422000202301210846FDF7D7FC9649086008467F
:10423000006801280AD000E013E0DBA001F060F87C
:104240004FF4FA70FCF7B1FA00F076F80020A749B5
:104250000870DDA001F054F801E0FFE700BF00BFE7
:104260000EE0E1480078401CDF49087008460078FD
:10427000032804DDDDA001F043F800F05DF800BF85
:1042800000BF10BDE2A001F03BF800F055F800B50A
:1042900085B0EB4B0FCBCDE90323CDE90101FFF74F
:1042A00003FCE849E848FDF71BF9E849E848FDF751
:1042B00026F9E849E848FDF747F901A90120FDF78B
:1042C000F1FA401C20B9E5A001F01AF800F034F82A
:1042D00000BF69460F20FDF7E5FA401C20B9EFA0AA
:1042E00001F00EF800F028F89DF8000028B9F4A0BD
:1042F00001F006F86420FCF758FA9DF80000002849
:10430000E7D0062215494FF41060FCF789FFF64903
:104310000020FFF7E4FAAFF29302AFF22321084640
:10432000FEF7C9FB0020B0490870F0490860401E44
:10433000EF49086005B000BDEE48006800F4E06099
:10434000ED490843001DEB490860BFF34F8F00BFE4
:10435000FEE70000A80D0020CC000020A6000020F1
:104360000D0A3D3D3D202573204E455420434F4EC0
:1043700046203A2044484350203D3D3D0D0A000070
:104380000D0A3D3D3D202573204E455420434F4EA0
:1043900046203A20537461746963203D3D3D0D0A07
:1043A000000000003D3D3D3D3D3D3D3D3D3D3D3D31
:1043B0003D3D3D3D3D3D3D3D3D3D3D3D3D3D3D0D5D
:1043C0000A0000004D414320616464726573733AD2
:1043D00020253032583A253032583A253032583A72
:1043E000253032583A253032583A253032580D0AA5
:1043F00000000000495020616464726573733A20C4
:1044000025642E25642E25642E25640D0A000000E7
:1044100064656661756C7420676174657761793A6B
:104420002025642E25642E25642E25640D0A0000A7
:104430005375626E6574206D61736B3A2025642E2E
:1044400025642E25642E25640D0A0000444E532059
:104450007365727665723A2025642E25642E256474
:104460002E25640D0A00000044484350206C65610D
:104470007365207465726D203A20256420530D0AFF
:1044800000000000C8000020526561647920746F4C
:1044900020636F6E6E65637420746F20736572762F
:1044A00065720D0A00000000C4000020BD0000205D
:1044B00054686520736572766572206973206E6F2B
:1044C00074207475726E6564206F6E20616E642056
:1044D00077696C6C206265207265636F6E6E6563D0
:1044E00074656420696E2033530D0A009800002023
:1044F000436F6E6E656374696F6E2065737461627D
:104500006C69736865640D0A0000000014000020E7
:104510005761697420666F722074686520636F6EDE
:104520006E656374696F6E20746F20626520636CC2
:104530006F7365640D0A0000436F6E6E6563746986
:104540006F6E20636C6F73696E67206661696C655E
:10455000642C20726561647920746F2072657374B5
:104560006172740D0A000000436F6E6E65637469BA
:104570006F6E20636C6F736564207375636365731E
:104580007366756C6C790D0A0000000052656164F9
:104590007920746F206F70656E206C6F63616C2082
:1045A000706F72740D0A0000506F72742065727221
:1045B0006F722C20726561647920746F207265734C
:1045C000746172740D0A00004F70656E696E672029
:1045D0006C6F63616C20706F7274207375636365B8
:1045E000656465640D0A0000A4000020444843503F
:1045F000206661696C65642C207265616479207441
:104600006F2072657374617274200D0A00000000DF
:104610004661696C656420746F2067657420495039
:1046200020616464726573732C2072656164792003
:10463000746F20726573746172740D0A000000005B
:104640006CF400085B3B0008513B0008713B00081C
:10465000653B0008013B0008273B00084661696C88
:10466000656420746F20696E697469616C697A652C
:10467000207472616E736365697665722070617211
:10468000746974696F6E2C20726561647920746F2F
:1046900020726573746172740D0A0000556E6B6E42
:1046A0006F776E206572726F722C2072656164790B
:1046B00020746F20726573746172740D0A000000BB
:1046C000546865206E6574776F726B206361626CED
:1046D00065206973206E6F7420636F6E6E656374FE
:1046E00065640D0A00000000440500209C000020C5
:1046F000A00000200CED00E00000FA0508B5012143
:10470000082002F060FC4FF44060ADF8000010207B
:104710008DF8030003208DF8020069469D4803F0E0
:1047200029FE4FF480619B4803F0D1FE4FF40061F5
:10473000984803F0CCFE08BD10B59648001D0068EF
:1047400020F470409349091D08600846006840F451
:1047500040500860C9148F4803F0B9FE4FF48061DF
:104760008C4803F0B4FE0420FBF7FEFF4FF4006119
:10477000884803F0AEFE10BD10B58648001D0068E5
:1047800020F470408349091D08600846006840F421
:1047900040500860C9147F4803F09BFE4FF48061CD
:1047A0007C4803F094FE0420FBF7DEFF4FF4006129
:1047B000784803F08CFE10BD10B500244FF4006162
:1047C000744803F084FE7348001D006820F47040B4
:1047D0007049091D08600846006840F40040086000
:1047E00008206C4910310860C1016A4803F06FFE6F
:1047F0000AE0601CC4B2FA2C03DDFFF7BDFF012004
:1048000010BD0220FBF7B0FF4FF40061614803F0D8
:1048100044FE0028EDD14FF480615E4803F059FE5C
:104820001420FBF7A1FF0020EAE770B504465948C1
:10483000001D006820F470405649091D08600846B4
:10484000006840F4405008600915524803F041FEEA
:10485000002519E0E2094FF400614E4803F03BFEE9
:104860006006040E0220FBF77FFF4FF48061494889
:1048700003F02DFE0220FBF777FF4FF480614548DF
:1048800003F027FE681CC5B2082DE3DB70BD70B5D0
:10489000054600243F48001D006820F470403D4953
:1048A000091D08600846006840F4004008600820C0
:1048B000384910310860C101364803F00AFE14205F
:1048C000FBF752FF00261EE04FF48061314803F0F1
:1048D000FEFD1420FBF748FF6006040E4FF4006154
:1048E0002C4803F0DAFD08B1601CC4B21420FBF7B9
:1048F0003BFF4FF48061274803F0EBFD1420FBF7EA
:1049000033FF701CC6B2082EDEDBF5B92148001D4E
:10491000006820F470401F49091D086008460068BF
:1049200040F440500860C9141A4803F0D0FD4FF419
:104930008061184803F0CBFD0220FBF715FF4FF410
:104940008061144803F0C5FD22E01248001D006894
:1049500020F470400F49091D08600846006840F4C3
:1049600040500860C9140B4803F0B3FD4FF4806158
:10497000084803F0ACFD0220FBF7F6FE4FF480611F
:10498000044803F0A6FD4FF40061024803F09FFDC8
:10499000204670BD000C014008B50121082002F03E
:1049A00012FB4020ADF8000003208DF80200142017
:1049B0008DF803006946814803F0DCFC8020ADF8E7
:1049C000000003208DF8020014208DF803006946D2
:1049D0007A4803F0CFFC08BD322001E0411EC8B286
:1049E0000028FBD1704710B58021744803F06FFD9B
:1049F0004021724803F06BFDFFF7EEFF80216F4806
:104A000003F04BFD08B9002010BD80216B4803F076
:104A100060FDFFF7E1FF8021684803F03EFD08B12B
:104A20000020F1E78021654803F053FDFFF7D4FF34
:104A30000120E9E710B54021604803F04AFDFFF787
:104A4000CBFF80215D4803F044FDFFF7C5FF402107
:104A50005A4803F03CFDFFF7BFFF8021574803F0A1
:104A600036FDFFF7B9FF10BD10B54021534803F0E4
:104A700030FDFFF7B1FF8021504803F02AFDFFF71A
:104A8000ABFF40214D4803F022FDFFF7A5FF402179
:104A90004A4803F01EFDFFF79FFF10BD10B54021EF
:104AA000464803F016FDFFF797FF8021434803F0C7
:104AB0000EFDFFF791FF4021404803F008FDFFF78E
:104AC0008BFF40213D4803F004FDFFF785FF10BD3B
:104AD00010B54021394803F0FCFCFFF77DFF802131
:104AE000364803F0F4FCFFF777FF4021334803F02A
:104AF000EEFCFFF771FF8021304803F0CEFC28B1B7
:104B000040212E4803F0E5FC002010BD40212B4839
:104B100003F0DFFC0120F8E770B5044608251BE030
:104B20004021264803F0D5FCFFF756FF04F0800033
:104B300020B18021214803F0CAFC03E080211F48F6
:104B400003F0C7FC6006040EFFF746FF40211B4838
:104B500003F0BDFCFFF740FF281EA5F10101CDB217
:104B6000DED14021154803F0B4FC70BD70B50825B6
:104B700000248021114803F0AAFC14E06006040E12
:104B800040210E4803F0A5FCFFF726FF40210B480B
:104B900003F09DFCFFF720FF8021084803F07DFC17
:104BA00008B144F00104281EA5F10101CDB2E5D100
:104BB0004021024803F08DFC204670BD000C0140EE
:104BC000002107E0002201E0531C9AB20B2AFBDB14
:104BD0004B1C99B28142F5DB704770B50446002545
:104BE00005E042F6F820FFF7EBFF681C85B2A5420E
:104BF000F7DB70BD70B505460C46FFF7F4FE08B94B
:104C0000002070BD8020FFF787FFFFF761FF18B914
:104C1000FFF710FF0020F4E72846FFF77DFFFFF7BE
:104C200057FF2046FFF778FFFFF752FFFFF702FF1D
:104C30000120E6E770B506460C461546FFF7D3FEA1
:104C400008B9002070BD8020FFF766FFFFF740FF26
:104C500018B9FFF7EFFE0020F4E73046FFF75CFFDE
:104C6000FFF736FFFFF7BFFE8120FFF755FFFFF785
:104C70002FFF0CE0FFF77AFF2870012C02D1FFF71D
:104C80000DFF01E0FFF7F0FE6D1C601E84B2002CEA
:104C9000F0D1FFF7CFFE0120D4E7F0B505460C4672
:104CA000164600270021224613E0A85C4140082751
:104CB0000BE001F0800020B1312080EA4100C1B258
:104CC00001E04806010E781EC7B2002FF1DC501C2F
:104CD000C2B2A0199042E8DC994201D10120F0BD96
:104CE0000020FCE708B5002000906A460121E7207B
:104CF000FFF7A0FF9DF8000008BD10B5044621464F
:104D0000E620FFF777FFFFF7EDFFA04201D101207A
:104D100010BD0020FCE72DE9F84F4FF0000A0020FD
:104D20000090FFF760FE10B90020BDE8F88F8020EA
:104D3000FFF7F2FEFFF7CCFE18B9FFF77BFE00206D
:104D4000F3E7F320FFF7E8FEFFF7C2FE1420FFF7BA
:104D500037FFFFF76FFE00BFFFF745FE8120FFF72B
:104D6000DBFEFFF7B5FE0028F6D04FF0000A09E0A1
:104D7000FFF7FCFE0DF80A00FFF776FE0AF10100CE
:104D800000F0FF0ABAF1030FF2DDFFF787FEFFF72D
:104D900051FE9DF800009DF8011008449DF8021096
:104DA0000844002826DD9DF80230022200216846D2
:104DB000FFF773FFF0B19DF801109DF8002001EBA3
:104DC00002214FF6FC7201EA02000AF079F88346EC
:104DD00009F0AAFE8046D14AD14B09F0BDFC064637
:104DE000D04AD14B09F010FC044609F0DBFBCF4957
:104DF000086001E0002098E7012096E72DE9F84FD0
:104E00004FF0000A00200090FFF7EDFD10B90020E0
:104E1000BDE8F88F8020FFF77FFEFFF759FE18B935
:104E2000FFF708FE0020F3E7F520FFF775FEFFF718
:104E30004FFE1420FFF7C4FEFFF7FCFD00BFFFF795
:104E4000D2FD8120FFF768FEFFF742FE0028F6D072
:104E50004FF0000A09E0FFF789FE0DF80A00FFF79E
:104E600003FE0AF1010000F0FF0ABAF1030FF2DDC0
:104E7000FFF714FEFFF7DEFD9DF800009DF801101E
:104E800008449DF802100844002826DD9DF80230F1
:104E9000022200216846FFF700FFF0B19DF80110E3
:104EA0009DF8002001EB02214FF6F07201EA0200AA
:104EB0000AF006F8834609F037FE804600229C4B34
:104EC00009F04AFC064600229A4B09F09DFB044675
:104ED00009F068FB9849086001E0002098E701208C
:104EE00096E710B5FFF77FFD08B9002010BD8020C0
:104EF000FFF712FEFFF7ECFD18B9FFF79BFD00204E
:104F0000F4E7FE20FFF708FEFFF7E2FDFFF792FD52
:104F100040F2DC50FFF761FE0120E7E770B506467E
:104F20000D460824FFF75FFD08B9002070BD802002
:104F3000FFF7F2FDFFF7CCFD18B9FFF77BFD00206E
:104F4000F4E7FA20FFF7E8FDFFF7C2FD0F20FFF7B7
:104F5000E3FDFFF7BDFDFFF746FD08B90020E5E7DB
:104F60008120FFF7D9FDFFF7B3FD18B9FFF762FD08
:104F70000020DBE70CE0FFF7F9FD3070012C02D1D7
:104F8000FFF78CFD01E0FFF76FFD761C601EC4B2D9
:104F9000002CF0D1FFF74EFD0624FFF724FD08B9E1
:104FA0000020C3E78020FFF7B7FDFFF791FD18B998
:104FB000FFF740FD0020B9E7FC20FFF7ADFDFFF74C
:104FC00087FDC920FFF7A8FDFFF782FDFFF70BFD66
:104FD00008B90020AAE78120FFF79EFDFFF778FDC2
:104FE00018B9FFF727FD0020A0E70CE0FFF7BEFD92
:104FF0002870012C02D1FFF751FD01E0FFF734FDCD
:105000006D1C601EC4B2002CF0D1FFF713FD01200F
:105010008CE710B549494A48FFF780FF48480078B7
:105020004749497808444649C978084444490979B8
:105030000844434949790844414989790844404929
:10504000C9790844002853DD3D48437801220021F6
:10505000FFF723FE00284FD03948C37801220221F0
:10506000FFF71BFE002847D0354843790122042171
:10507000FFF713FE00283FD03148C37901220621F3
:10508000FFF70BFE98B32D48837802220021FFF72B
:1050900004FE60B32948437902220321FFF7FDFD96
:1050A00028B32648C07800062449097900EB01405E
:1050B0002349097800EB01202149897808442149D6
:1050C00008601F48007900061D49897900EB0140FE
:1050D0001A49097800EB01201849497808441A490F
:1050E0000860084600681749096800EB012403E0DE
:1050F00012491348FFF712FF204610BD10B5FFF705
:105100000AFE18B10948006810498861FFF776FE69
:1051100018B1094800680D49086210BDD7A3703D59
:105120000AF7653FCDCCCCCCCC6C47C0D800002072
:1051300000405F3F000018C0DC000020E8000020B5
:10514000E0000020F0000020F4000020B802002061
:1051500000BF704700BFF84A128802F04002002AE0
:10516000F9D0C2B2F44B1B1D1A807047F24909886E
:1051700001F0200111B3F049091D0988C8B2EF49B7
:10518000098801F40041C9B9EC49098801F480415A
:1051900061B10A2803D00021E84A118020E0E749E4
:1051A000098841F40041E54A118019E00D2806D133
:1051B000E249098841F48041E04A118010E0DF496A
:1051C0000988C1F30D01DE4A5054DC490988491CA5
:1051D000DA4A118011460988C72901DD00211180B2
:1051E000704710B586B004460121342001F0EBFE73
:1051F000D448806940F01000D24988610846C069EF
:1052000040F40020C861D048406820F47F40CE4977
:1052100048600846406840F40B4048600420ADF800
:10522000000010208DF8030003208DF8020069466D
:10523000C64803F09FF80421C44803F04AF94FF42C
:105240000040ADF8000010208DF8030003208DF819
:1052500002006946BE4803F08DF84FF40041BC4897
:1052600003F037F94FF48050ADF8000048208DF876
:1052700003006946B44803F07DF8B248006940F481
:105280000020B04908610846006920F40020086148
:1052900002940020ADF80C00ADF80E00ADF810003F
:1052A000ADF814000C20ADF8120002A9A24802F0DB
:1052B00040FE012240F225519F4802F0D2FE01211A
:1052C0009D4802F0C2FE9C480C30008840F480707B
:1052D00099490C3108800846008840F02000088079
:1052E00034208DF8040003208DF805008DF80600A9
:1052F00001208DF8070001A801F0E1FB06B010BD08
:105300000FB438B505A800909248009A049907F0A8
:10531000F9FC002000908F4807F0F8FE054600BF1A
:105320008548008800F040000028F9D000240CE0F7
:105330008848005D8049091D088000BF7E480088BC
:1053400000F040000028F9D0641CAC42F0D338BC17
:105350005DF814FB2DE9F04F91B07FA1784807F07C
:105360009FFE00282FD07E49486A09F0DDFB0746E2
:1053700088467B49C86909F0D7FBCDE90E01784919
:10538000086A09F0D1FBCDE90C017549886909F07B
:10539000CBFBCDE90A017248408ACDE90678089036
:1053A000DDE90E01CDE904016D48008A0290DDE9D6
:1053B0000C01CDE900016A48C1686AA0DDE90A2351
:1053C000FFF79EFFC3E277A15D4807F069FE002862
:1053D0007ED05B48C0783038642148435849097909
:1053E000303901EB810100EB4101554840793038FB
:1053F0000844C0B28DF840005148C079303864216B
:1054000048434F49097A303901EB810100EB4101F2
:105410004B48407A30380844C0B28DF841004848C3
:10542000C07A3038642148434549097B303901EB63
:10543000810100EB41014248407B30380844C0B252
:105440008DF842003E48C07B3038642148433C49D7
:10545000097C303901EB810100EB41013848407C87
:1054600030380844C0B28DF843003548C07C30382D
:1054700042F2107148433249097D303901EB410253
:10548000C2EBC11100EBC1012D48407D303800EB6B
:10549000C00202EB001001EB80012948807D30380A
:1054A00000EB800001EB40012548C07D3038084406
:1054B0001FFA80F99DF84010F720FBF7D6FD9DF804
:1054C0004110F620FBF7D1FD9DF84210F52000E0D9
:1054D0001EE0FBF7CAFD9DF84310F420FBF7C5FD65
:1054E0004FEA1921F320FBF7C0FD09F0FF01F2207C
:1054F000FBF7BBFD2C4801682C48C078CDE90001C2
:105500002A4883784278017829A0FFF7F9FE1EE245
:1055100030A10B4807F0C4FD68B123480168234857
:10552000C078CDE90001214883784278017820A035
:10553000FFF7E6FE0BE24FE0004C0040FC000020CD
:10554000E00D002000100240001001400014014056
:1055500000080140A80E0020444154410000000012
:10556000B80200205345545F444154413A25303439
:10557000642025332E326627432025332E326625BC
:105580002520253033642025332E326627432025FD
:10559000332E326625252025303364204F4B0D0AEB
:1055A0000000000049503A00C4000020BD00002067
:1055B0000D0A5345545F49503A25642E25642E2523
:1055C000642E25643A506F72743A25303464204F4B
:1055D0004B0D0A0049503F00FCA1FE4807F060FD5A
:1055E000B0B3FC48807930384FF47A714843F949B8
:1055F000C979303901EBC10202EB011100EB8101E5
:10560000F448007A303800EB800001EB4001F148AB
:10561000407A30380844F049C8600846C068FF2125
:10562000B0FBF1F0C7B23946FF20FBF71EFDEA4898
:10563000C068FF21B0FBF1F201FB12073946FE20E2
:10564000FBF713FDE448C168E4A0FFF759FE7EE1D3
:10565000FFE7E6A1DF4807F023FD002837D0DD484B
:10566000807930384FF47A714843DA49C979303952
:1056700001EBC10202EB011100EB8101D548007A78
:10568000303800EB800001EB4001D248407A3038DE
:10569000084484B2210AFD20FBF7E7FCE1B2FC20BC
:1056A000FBF7E3FC204609F023FCCB49C861C8693D
:1056B000D04909F0D3FAC849C861C86909F034FA79
:1056C00007463A460B46CCA0FFF71AFE3FE1CFA1B2
:1056D000C04807F0E5FCA0B3BE48807930384FF4ED
:1056E0007A714843BB49C979303901EBC10202EBF9
:1056F000011100EB8101B748007A303800EB8000DF
:1057000001EB4001B348407A3038084485B2290A99
:10571000FB20FBF7AAFCE9B2FA20FBF7A6FC28461F
:1057200009F0E6FBAC494862486AB24909F096FACA
:10573000A9494862486A09F0F7F907463A460B4614
:1057400000E003E0B3A0FFF7DBFD00E1B7A1A14853
:1057500007F0A6FC88B39F48807930384FF47A71FF
:1057600048439C49C979303901EBC10202EB011170
:1057700000EB81019748007A303800EB800001EBA4
:1057800040019448407A3038084486B2310AF92002
:10579000FBF76BFCF1B2F820FBF767FC8E48468202
:1057A0000146486A934909F059FA8B49486208460C
:1057B000418AA0A0FFF7A4FDC9E0FFE7A2A18548A8
:1057C00007F06EFC002878D08248407A30384FF4D9
:1057D0007A7148437F49897A303901EBC10202EB83
:1057E000011100EB81017B48C07A303800EB80006A
:1057F00001EB40017748007B3038084495498880A8
:105800007448C07B30387349897B303901EB8101A2
:1058100000EB41008F4988716E48807C30386D49BB
:10582000497C303901EB810100EB41008949C871A5
:105830006848407D30386749097D303901EB810186
:1058400000EB4100834908706248007E30386149AE
:10585000C97D303901EB810100EB41007D49487081
:105860005C48C07E30385B49897E303901EB81016C
:1058700000EB410077498870084680784978754F79
:10588000CDE900103B78FA79B979B88800F0C9FB06
:1058900000F04FFB38468078394649783A4612780E
:1058A000CDE9002102903846C3798279818800E0F1
:1058B00003E069A0FFF724FD49E073A1454807F024
:1058C000EFFB18B171A003F082FC40E073A14148E6
:1058D00007F0E6FBD8B33F48007A30384FF47A71CE
:1058E00048433C49497A303901EBC10202EB0111CE
:1058F00000EB81013748807A303800EB800001EB03
:1059000040013448C07A303808441FFA80FA3148E0
:10591000407B30384FF47A7148432E49897B3039C7
:1059200001EBC10202EB011100EB81012948C07BB0
:10593000303800EB800001EB40012648007C303815
:1059400008441FFA80FB5946504603F0E6FE4FF428
:105950008071204807F092FC00205349088011B064
:10596000BDE8F08F10B5FFF7F5FC10BD2DE9F04153
:105970000025EF204D490870042048704D208870A4
:105980004520C87049200871324880881249088132
:105990003048807988722F48C079C87208460089DB
:1059A0000A2190FBF1F090FBF1F201FB1200303084
:1059B0003E494871084800890A2190FBF1F201FB39
:1059C0001200303039498871034871E05345545F03
:1059D000443A0000E00D0020B80200205345545F17
:1059E000443A25303464204F4B0D0A005345545F30
:1059F000543A0000000020415345545F543A253387
:105A00002E32662743204F4B0D0A00005345545F4A
:105A1000483A00005345545F483A25332E326625F4
:105A2000255248204F4B0D0A000000005345545F9B
:105A3000503A00005345545F503A256475672F6D06
:105A400033204F4B0D0A00005345545F54494D45D8
:105A50003A000000702100205345545F54494D45E1
:105A60003A253034642D253032642D2530326420BF
:105A7000253032643A253032643A2530326420537E
:105A800045545F4F4B0D0A006C730000303A2F44B1
:105A90006174615F43616368650000007265616401
:105AA0005F73643A00000000FC000020A80D002095
:105AB000807A0A2190FBF1F030305E49C8715E486F
:105AC000807A0A2190FBF1F201FB12003030594933
:105AD00008725948C07A0A2190FBF1F030305549DC
